:100000000C942A000C943F000C943F000C943F0089
:100010000C943F000C943F000C943F000C943F0064
:100020000C943F000C943F000C943F000C943F0054
:100030000C943F000C943F000C943F000C943F0044
:100040000C943F000C943F000C943F000C943F0034
:100050000C943F0011241FBECFE5D8E0DEBFCDBF1A
:1000600010E0A0E6B0E0EEECF9E002C005900D92E1
:10007000A638B107D9F70E949D030C94E5040C94AF
:100080000000683008F07CC0823449F1833420F4E9
:10009000813409F075C007C0833409F43CC084344E
:1000A00009F06EC053C0442371F0413009F068C0BC
:1000B0002AB381E090E002C0880F991F6A95E2F7A9
:1000C000282B2ABB08952AB381E090E002C0880F54
:1000D000991F6A95E2F7809582238ABB089544238D
:1000E00071F0413009F04CC027B381E090E002C0CC
:1000F000880F991F6A95E2F7282B27BB089527B32D
:1001000081E090E002C0880F991F6A95E2F7809520
:10011000822387BB0895442369F0413089F524B3D5
:1001200081E090E002C0880F991F6A95E2F7282BC2
:1001300024BB089524B381E090E002C0880F991F8A
:100140006A95E2F78095822384BB0895442369F081
:100150004130B1F421B381E090E002C0880F991FD3
:100160006A95E2F7282B21BB089521B381E090E046
:1001700002C0880F991F6A95E2F78095822381BBA0
:100180000895683008F07CC0823449F1833420F44B
:10019000813409F075C007C0833409F43CC084344D
:1001A00009F06EC053C0442371F0413009F068C0BB
:1001B0002BB381E090E002C0880F991F6A95E2F7A7
:1001C000282B2BBB08952BB381E090E002C0880F51
:1001D000991F6A95E2F7809582238BBB089544238B
:1001E00071F0413009F04CC028B381E090E002C0CA
:1001F000880F991F6A95E2F7282B28BB089528B32A
:1002000081E090E002C0880F991F6A95E2F780951F
:10021000822388BB0895442369F0413089F525B3D2
:1002200081E090E002C0880F991F6A95E2F7282BC1
:1002300025BB089525B381E090E002C0880F991F87
:100240006A95E2F78095822385BB0895442369F07F
:100250004130B1F422B381E090E002C0880F991FD1
:100260006A95E2F7282B22BB089522B381E090E043
:1002700002C0880F991F6A95E2F78095822382BB9E
:1002800008956830D8F4823461F0833418F48134EE
:10029000A9F405C0833439F0843481F406C089B3ED
:1002A00005C086B303C083B301C080B390E002C031
:1002B000959587956A95E2F7817008958FEF089577
:1002C000823461F0833418F4813469F405C08334D6
:1002D00039F0843441F406C06ABB089567BB0895C1
:1002E00064BB089561BB0895823461F0833418F4CF
:1002F000813469F405C0833439F0843441F406C094
:100300006BBB089568BB089565BB089562BB0895F3
:10031000823469F0833418F4813429F406C08334BC
:1003200041F0843441F08FEF089589B3089586B386
:10033000089583B3089580B308950F931F93182FE2
:1003400082E460E041E00E94C10082E461E040E0BC
:100350000E94C10081E4612F0E94740182E462E086
:1003600041E00E94C10000ED17E0C8010197F1F7DC
:1003700082E462E040E00E94C100C8010197F1F709
:100380001F910F910895AF92BF92DF92EF92FF926B
:100390000F931F93DF93CF93CDB7DEB72C970FB694
:1003A000F894DEBF0FBECDBF7B018C0161157105D6
:1003B0008105910521F480E30E949D0144C097FFCF
:1003C0000BC08DE20E949D0110950095F094E09481
:1003D000E11CF11C011D111D5E010894A11CB11C42
:1003E000DD24C801B7012AE030E040E050E00E947F
:1003F000A804605DF50161935F01D394C801B70162
:100400002AE030E040E050E00E94A804C901DA018F
:100410007C018D01E114F1040105110511F7DA9455
:100420008D2D992787FD9095D3948E010F5F1F4FD7
:10043000080F191FDA94F80180810E949D01015074
:100440001040DD20B9F72C960FB6F894DEBF0FBE32
:10045000CDBFCF91DF911F910F91FF90EF90DF9073
:10046000BF90AF900895CF93DF93EC0103C00E943B
:100470009D01219688818823D1F7DF91CF9108953E
:100480000F931F93182F82E460E040E00E94C100A8
:1004900082E461E040E00E94C10081E4612F0E949B
:1004A000740182E462E041E00E94C10000ED17E0C7
:1004B000C8010197F1F782E462E040E00E94C100C8
:1004C000C8010197F1F71F910F91089581E00E94F3
:1004D000400280EA9FE00197F1F70895603170F4DF
:1004E000882319F0813051F405C0862F80580E946E
:1004F00040020895862F80540E94400208950F9371
:100500001F9381E46FEF0E94600182E460E041E0AC
:100510000E94410082E461E041E00E94410082E4E7
:1005200062E041E00E94410084EF91E028EC30E07D
:10053000F9013197F1F70197D9F788E30E9440025A
:1005400000ED17E0C8010197F1F78CE00E9440022E
:10055000C8010197F1F781E00E94400280EA9FE024
:100560000197F1F786E00E944002C8010197F1F778
:100570001F910F9108956F927F928F929F92AF92E9
:10058000BF92CF92DF92EF92FF920F931F93DF9370
:10059000CF93CDB7DEB728970FB6F894DEBF0FBE66
:1005A000CDBF84E0898385E08A8386E08B8387E002
:1005B0008C831D8281E08E8382E08F8383E0888735
:1005C000EE24FF243E010894611C711C25E0822E5C
:1005D000912C8C0E9D1E90E4A92E9CE9B92EF3015E
:1005E000EE0DFF1DC08084E46C2D40E00E94C10030
:1005F00000E010E0F401E00FF11FD08084E46D2DE5
:100600000E9441018823F9F4C5010197F1F784E4C0
:100610006D2D0E9441018823B1F4000F111F000FBE
:10062000111F0E0D1F1D0A581F4FF801108184E481
:100630006D2D0E9441018823D1F384E46C2D41E0AB
:100640000E94C10013C00F5F1F4F0430110591F6C7
:1006500084E46C2D41E00E94C1000894E11CF11C6F
:10066000F4E0EF16F10409F0BACF1FEF812F2896BE
:100670000FB6F894DEBF0FBECDBFCF91DF911F91B3
:100680000F91FF90EF90DF90CF90BF90AF909F9031
:100690008F907F906F90089584E460E040E00E9426
:1006A000410084E461E040E00E94410084E462E0B3
:1006B00040E00E94410084E463E040E00E94410089
:1006C00084E460E041E00E94C10084E461E041E034
:1006D0000E94C10084E462E041E00E94C10084E421
:1006E00063E041E00E94C10084E464E041E00E94D4
:1006F000410084E465E041E00E94410084E466E05A
:1007000041E00E94410084E467E041E00E94410032
:1007100084E464E041E00E94C10084E465E041E0DB
:100720000E94C10084E466E041E00E94C10084E4CC
:1007300067E041E00E94C10008954F925F926F927E
:100740007F928F929F92AF92BF92CF92DF92EF9261
:10075000FF920F931F93DF93CF930F92CDB7DEB726
:100760000E947F020E944C0380E690E00E943302C8
:1007700080E197E228EC30E0F9013197F1F7019739
:10078000D9F70E94660280E060E00E946E02AA240F
:10079000BB246501EE24FF2487019924882488EC7A
:1007A000682E712C0E94BB02982F8F3FD9F3805383
:1007B0008A30A8F5892F99830E949D019981492E3D
:1007C00055248820B1F4C601B5012AE030E040E0AC
:1007D00050E00E94890420ED3FEF420E531E52016B
:1007E000CC24B7FCC094DC2CA60EB71EC81ED91EA4
:1007F000D9CFC801B7012AE030E040E050E00E94C4
:100800008904E0EDFFEF4E0E5F1E72010027F7FC3A
:100810000095102FE60EF71E081F191FC3CF9B323D
:1008200031F09D3221F09A3211F09F3249F4892F34
:1008300099830E949D019981992E88248394B2CF37
:100840009D3309F054C08DE30E949D01FBE29F1689
:1008500069F0F91520F02AE29216D9F515C03DE2AB
:10086000931659F08FE29816A1F515C0C801B7018B
:100870006A0D7B1D8C1D9D1D30C0C601B5016E1912
:100880007F09800B910B29C0C801B701A601950112
:100890000E94890422C0E114F1040105110559F0F8
:1008A000C601B501A80197010E94A804C901DA0197
:1008B000BC01CD0112C00E9466028BE690E00E944E
:1008C000330280E197E2F3013197F1F70197D9F70D
:1008D00011C060E070E080E090E00E94C30188E910
:1008E0009AE3F3013197F1F70197D9F703C09334F5
:1008F00009F058CF0E94660280E060E00E946E021C
:10090000AA24BB246501EE24FF24870199248824AE
:1009100049CF629FD001739FF001829FE00DF11DCE
:10092000649FE00DF11D929FF00D839FF00D749F69
:10093000F00D659FF00D9927729FB00DE11DF91F15
:10094000639FB00DE11DF91FBD01CF011124089572
:1009500097FB092E05260ED057FD04D014D00AD0DF
:10096000001C38F450954095309521953F4F4F4FDE
:100970005F4F0895F6F790958095709561957F4F3C
:100980008F4F9F4F0895A1E21A2EAA1BBB1BFD019A
:100990000DC0AA1FBB1FEE1FFF1FA217B307E4075E
:1009A000F50720F0A21BB30BE40BF50B661F771FB6
:1009B000881F991F1A9469F7609570958095909596
:0E09C0009B01AC01BD01CF010895F894FFCF5B
:1009CE0043616C63756C61746F72004D6174682065
:1009DE004572726F72003738392F3435362A3132FC
:0609EE00332D63303D2BA8
:00000001FF
