:100000000C942A000C9434000C9434000C943400AA
:100010000C9434000C9434000C9434000C94340090
:100020000C9434000C9434000C9434000C94340080
:100030000C9434000C9434000C9434000C94340070
:100040000C9434000C9434000C9434000C94340060
:100050000C94340011241FBECFE5D8E0DEBFCDBF25
:100060000E942B020C9450020C940000683008F09F
:100070007CC0823449F1833420F4813409F075C0A6
:1000800007C0833409F43CC0843409F06EC053C007
:10009000442371F0413009F068C02AB381E090E058
:1000A00002C0880F991F6A95E2F7282B2ABB089592
:1000B0002AB381E090E002C0880F991F6A95E2F7A9
:1000C000809582238ABB0895442371F0413009F062
:1000D0004CC027B381E090E002C0880F991F6A9559
:1000E000E2F7282B27BB089527B381E090E002C0F8
:1000F000880F991F6A95E2F78095822387BB089540
:10010000442369F0413089F524B381E090E002C0D6
:10011000880F991F6A95E2F7282B24BB089524B312
:1001200081E090E002C0880F991F6A95E2F7809500
:10013000822384BB0895442369F04130B1F421B394
:1001400081E090E002C0880F991F6A95E2F7282BA2
:1001500021BB089521B381E090E002C0880F991F70
:100160006A95E2F78095822381BB0895683008F094
:100170007CC0823449F1833420F4813409F075C0A5
:1001800007C0833409F43CC0843409F06EC053C006
:10019000442371F0413009F068C02BB381E090E056
:1001A00002C0880F991F6A95E2F7282B2BBB089590
:1001B0002BB381E090E002C0880F991F6A95E2F7A7
:1001C000809582238BBB0895442371F0413009F060
:1001D0004CC028B381E090E002C0880F991F6A9557
:1001E000E2F7282B28BB089528B381E090E002C0F5
:1001F000880F991F6A95E2F78095822388BB08953E
:10020000442369F0413089F525B381E090E002C0D4
:10021000880F991F6A95E2F7282B25BB089525B30F
:1002200081E090E002C0880F991F6A95E2F78095FF
:10023000822385BB0895442369F04130B1F422B391
:1002400081E090E002C0880F991F6A95E2F7282BA1
:1002500022BB089522B381E090E002C0880F991F6D
:100260006A95E2F78095822382BB08956830D8F4BE
:10027000823461F0833418F48134A9F405C08334E6
:1002800039F0843481F406C089B305C086B303C055
:1002900083B301C080B390E002C0959587956A95BD
:1002A000E2F7817008958FEF0895823461F083340E
:1002B00018F4813469F405C0833439F0843441F48E
:1002C00006C06ABB089567BB089564BB089561BB0F
:1002D0000895823461F0833418F4813469F405C0E0
:1002E000833439F0843441F406C06BBB089568BB95
:1002F000089565BB089562BB0895823469F0833424
:1003000018F4813429F406C0833441F0843441F078
:100310008FEF089589B3089586B3089583B3089540
:1003200080B308950F931F93182F84E460E041E099
:100330000E94B60084E461E040E00E94B60083E4DD
:10034000612F0E94690184E462E041E00E94B600EE
:1003500000ED17E0C8010197F1F784E462E040E0A6
:100360000E94B600C8010197F1F71F910F910895FF
:100370000F931F93182F84E460E040E00E94B600C2
:1003800084E461E040E00E94B60083E4612F0E94B3
:10039000690184E462E041E00E94B60000ED17E0EC
:1003A000C8010197F1F784E462E040E00E94B600E2
:1003B000C8010197F1F71F910F910895603170F412
:1003C000882319F0813051F405C0862F80580E948F
:1003D000B8010895862F80540E94B80108950F93A4
:1003E0001F9383E46FEF0E94550184E460E041E0D5
:1003F0000E94360084E461E041E00E94360084E41B
:1004000062E041E00E94360084EF91E028EC30E0A9
:10041000F9013197F1F70197D9F788E30E94B80104
:1004200000ED17E0C8010197F1F78CE00E94B801D8
:10043000C8010197F1F781E00E94B80180EA9FE0CE
:100440000197F1F786E00E94B801C8010197F1F722
:100450001F910F9108950E94EF018DE40E94920177
:1004600085E40E94920182E50E9492018EE40E943E
:10047000920181E40E94920186E20E94920188E446
:100480000E94920181E40E9492018EE40E949201F6
:1004900081E40E94920181E064E00E94DE01FFCFCE
:0404A000F894FFCFFE
:00000001FF
