:100000000C942A000C943F000C943F000C943F0089
:100010000C943F000C943F000C943F000C943F0064
:100020000C943F000C943F000C943F000C943F0054
:100030000C943F000C943F000C943F000C943F0044
:100040000C943F000C943F000C943F000C943F0034
:100050000C943F0011241FBECFE5D8E0DEBFCDBF1A
:1000600010E0A0E6B0E0E6EAF4E002C005900D92F0
:10007000A037B107D9F70E941F020C9451020C94CB
:100080000000683008F07CC0823449F1833420F4E9
:10009000813409F075C007C0833409F43CC084344E
:1000A00009F06EC053C0442371F0413009F068C0BC
:1000B0002AB381E090E002C0880F991F6A95E2F7A9
:1000C000282B2ABB08952AB381E090E002C0880F54
:1000D000991F6A95E2F7809582238ABB089544238D
:1000E00071F0413009F04CC027B381E090E002C0CC
:1000F000880F991F6A95E2F7282B27BB089527B32D
:1001000081E090E002C0880F991F6A95E2F7809520
:10011000822387BB0895442369F0413089F524B3D5
:1001200081E090E002C0880F991F6A95E2F7282BC2
:1001300024BB089524B381E090E002C0880F991F8A
:100140006A95E2F78095822384BB0895442369F081
:100150004130B1F421B381E090E002C0880F991FD3
:100160006A95E2F7282B21BB089521B381E090E046
:1001700002C0880F991F6A95E2F78095822381BBA0
:100180000895683008F07CC0823449F1833420F44B
:10019000813409F075C007C0833409F43CC084344D
:1001A00009F06EC053C0442371F0413009F068C0BB
:1001B0002BB381E090E002C0880F991F6A95E2F7A7
:1001C000282B2BBB08952BB381E090E002C0880F51
:1001D000991F6A95E2F7809582238BBB089544238B
:1001E00071F0413009F04CC028B381E090E002C0CA
:1001F000880F991F6A95E2F7282B28BB089528B32A
:1002000081E090E002C0880F991F6A95E2F780951F
:10021000822388BB0895442369F0413089F525B3D2
:1002200081E090E002C0880F991F6A95E2F7282BC1
:1002300025BB089525B381E090E002C0880F991F87
:100240006A95E2F78095822385BB0895442369F07F
:100250004130B1F422B381E090E002C0880F991FD1
:100260006A95E2F7282B22BB089522B381E090E043
:1002700002C0880F991F6A95E2F78095822382BB9E
:1002800008956830D8F4823461F0833418F48134EE
:10029000A9F405C0833439F0843481F406C089B3ED
:1002A00005C086B303C083B301C080B390E002C031
:1002B000959587956A95E2F7817008958FEF089577
:1002C000823461F0833418F4813469F405C08334D6
:1002D00039F0843441F406C06ABB089567BB0895C1
:1002E00064BB089561BB0895823461F0833418F4CF
:1002F000813469F405C0833439F0843441F406C094
:100300006BBB089568BB089565BB089562BB0895F3
:10031000823469F0833418F4813429F406C08334BC
:1003200041F0843441F08FEF089589B3089586B386
:10033000089583B3089580B30895CF92DF92EF922A
:10034000FF920F931F93082F10E020E6E22E20E08B
:10035000F22E000F111F000F111F6701C00ED11EDA
:1003600081E460E0F60140810E94C10081E461E027
:10037000F60141810E94C100E00EF11E81E462E0BD
:10038000F70142810E94C10081E463E0F6014381EC
:100390000E94C1001F910F91FF90EF90DF90CF90CE
:1003A0000895EF92FF920F931F93CF93DF93AA27A5
:1003B00097FDA095BA2F4BE0880F991FAA1FBB1F6E
:1003C0004A95D1F7BC01CD0128E631E040E050E08C
:1003D0000E942F028901C0E0D0E030E1E32E37E235
:1003E000F32E09C09E012370822F0E949D01C70138
:1003F0000197F1F72196C017D107A0F3DF91CF91B4
:100400001F910F91FF90EF90089584EB90E00E9470
:10041000D101089581E460E041E00E94410081E45F
:1004200061E041E00E94410081E462E041E00E941D
:10043000410081E463E041E00E9441000895CF93D0
:10044000DF930E940A02C8ECD0E00E94050280E11E
:1004500097E2FE013197F1F70197D9F7F6CFA1E2C4
:100460001A2EAA1BBB1BFD010DC0AA1FBB1FEE1F2E
:10047000FF1FA217B307E407F50720F0A21BB30B79
:10048000E40BF50B661F771F881F991F1A9469F7F5
:1004900060957095809590959B01AC01BD01CF0151
:0604A0000895F894FFCF5F
:1004A6000100000101000000010100000001000040
:00000001FF
