:100000000C942A000C943F000C943F000C943F0089
:100010000C943F000C943F000C943F000C943F0064
:100020000C943F000C943F000C943F000C943F0054
:100030000C943F000C943F000C943F000C943F0044
:100040000C943F000C943F000C943F000C943F0034
:100050000C943F0011241FBECFE5D8E0DEBFCDBF1A
:1000600010E0A0E6B0E0E2E9F3E002C005900D92F6
:10007000AA36B107D9F70E94B0010C94C7010C94BD
:100080000000683008F07CC0823449F1833420F4E9
:10009000813409F075C007C0833409F43CC084344E
:1000A00009F06EC053C0442371F0413009F068C0BC
:1000B0002AB381E090E002C0880F991F6A95E2F7A9
:1000C000282B2ABB08952AB381E090E002C0880F54
:1000D000991F6A95E2F7809582238ABB089544238D
:1000E00071F0413009F04CC027B381E090E002C0CC
:1000F000880F991F6A95E2F7282B27BB089527B32D
:1001000081E090E002C0880F991F6A95E2F7809520
:10011000822387BB0895442369F0413089F524B3D5
:1001200081E090E002C0880F991F6A95E2F7282BC2
:1001300024BB089524B381E090E002C0880F991F8A
:100140006A95E2F78095822384BB0895442369F081
:100150004130B1F421B381E090E002C0880F991FD3
:100160006A95E2F7282B21BB089521B381E090E046
:1001700002C0880F991F6A95E2F78095822381BBA0
:100180000895683008F07CC0823449F1833420F44B
:10019000813409F075C007C0833409F43CC084344D
:1001A00009F06EC053C0442371F0413009F068C0BB
:1001B0002BB381E090E002C0880F991F6A95E2F7A7
:1001C000282B2BBB08952BB381E090E002C0880F51
:1001D000991F6A95E2F7809582238BBB089544238B
:1001E00071F0413009F04CC028B381E090E002C0CA
:1001F000880F991F6A95E2F7282B28BB089528B32A
:1002000081E090E002C0880F991F6A95E2F780951F
:10021000822388BB0895442369F0413089F525B3D2
:1002200081E090E002C0880F991F6A95E2F7282BC1
:1002300025BB089525B381E090E002C0880F991F87
:100240006A95E2F78095822385BB0895442369F07F
:100250004130B1F422B381E090E002C0880F991FD1
:100260006A95E2F7282B22BB089522B381E090E043
:1002700002C0880F991F6A95E2F78095822382BB9E
:1002800008956830D8F4823461F0833418F48134EE
:10029000A9F405C0833439F0843481F406C089B3ED
:1002A00005C086B303C083B301C080B390E002C031
:1002B000959587956A95E2F7817008958FEF089577
:1002C000823461F0833418F4813469F405C08334D6
:1002D00039F0843441F406C06ABB089567BB0895C1
:1002E00064BB089561BB0895823461F0833418F4CF
:1002F000813469F405C0833439F0843441F406C094
:100300006BBB089568BB089565BB089562BB0895F3
:10031000823469F0833418F4813429F406C08334BC
:1003200041F0843441F08FEF089589B3089586B386
:10033000089583B3089580B3089583E460E00E9434
:1003400074010895E0E6F0E0E80FF11D83E46081B8
:100350000E947401089583E46FEF0E946001089584
:100360001F93CF93DF930E94AB0110E0C8ECD0E065
:10037000812F0E94A20188EE93E0FE013197F1F7F0
:100380000197D9F71F5F1A3098F310E0F1CFF89476
:02039000FFCF9D
:0A0392003F065B4F666D7D077F6F2D
:00000001FF
