:100000000C942A000C9434000C9434000C943400AA
:100010000C9434000C9434000C9434000C94340090
:100020000C9434000C9434000C9434000C94340080
:100030000C9434000C9434000C9434000C94340070
:100040000C9434000C9434000C9434000C94340060
:100050000C94340011241FBECFE5D8E0DEBFCDBF25
:100060000E94B2010C9486020C940000683008F0E3
:100070007CC0823449F1833420F4813409F075C0A6
:1000800007C0833409F43CC0843409F06EC053C007
:10009000442371F0413009F068C02AB381E090E058
:1000A00002C0880F991F6A95E2F7282B2ABB089592
:1000B0002AB381E090E002C0880F991F6A95E2F7A9
:1000C000809582238ABB0895442371F0413009F062
:1000D0004CC027B381E090E002C0880F991F6A9559
:1000E000E2F7282B27BB089527B381E090E002C0F8
:1000F000880F991F6A95E2F78095822387BB089540
:10010000442369F0413089F524B381E090E002C0D6
:10011000880F991F6A95E2F7282B24BB089524B312
:1001200081E090E002C0880F991F6A95E2F7809500
:10013000822384BB0895442369F04130B1F421B394
:1001400081E090E002C0880F991F6A95E2F7282BA2
:1001500021BB089521B381E090E002C0880F991F70
:100160006A95E2F78095822381BB0895683008F094
:100170007CC0823449F1833420F4813409F075C0A5
:1001800007C0833409F43CC0843409F06EC053C006
:10019000442371F0413009F068C02BB381E090E056
:1001A00002C0880F991F6A95E2F7282B2BBB089590
:1001B0002BB381E090E002C0880F991F6A95E2F7A7
:1001C000809582238BBB0895442371F0413009F060
:1001D0004CC028B381E090E002C0880F991F6A9557
:1001E000E2F7282B28BB089528B381E090E002C0F5
:1001F000880F991F6A95E2F78095822388BB08953E
:10020000442369F0413089F525B381E090E002C0D4
:10021000880F991F6A95E2F7282B25BB089525B30F
:1002200081E090E002C0880F991F6A95E2F78095FF
:10023000822385BB0895442369F04130B1F422B391
:1002400081E090E002C0880F991F6A95E2F7282BA1
:1002500022BB089522B381E090E002C0880F991F6D
:100260006A95E2F78095822382BB08956830D8F4BE
:10027000823461F0833418F48134A9F405C08334E6
:1002800039F0843481F406C089B305C086B303C055
:1002900083B301C080B390E002C0959587956A95BD
:1002A000E2F7817008958FEF0895823461F083340E
:1002B00018F4813469F405C0833439F0843441F48E
:1002C00006C06ABB089567BB089564BB089561BB0F
:1002D0000895823461F0833418F4813469F405C0E0
:1002E000833439F0843441F406C06BBB089568BB95
:1002F000089565BB089562BB0895823469F0833424
:1003000018F4813429F406C0833441F0843441F078
:100310008FEF089589B3089586B3089583B3089540
:1003200080B308950F931F93182F062F0E94360154
:10033000813021F4812F602F40E003C0812F602F96
:1003400041E00E94B6001F910F91089540E00E9485
:10035000B600089541E00E94B600089541E00E9471
:10036000360008959F92AF92BF92CF92DF92EF92A4
:10037000FF920F931F93CF93DF9310E082E4612FDE
:100380000E94AE011F5F1830C9F700E0C0E4DCE94D
:1003900030E2C32E3EE4D32E20E6E22E2AEEF22EE9
:1003A00097E0992E80E3A82E85E7B82E10C010E0C4
:1003B00082E4612F0E94A6011F5F1830C9F782E412
:1003C000602F0E94AA01CE010197F1F70F5F08305C
:1003D00070F306E012C082E4612F0E94A6011F5F45
:1003E0001830C9F782E4602F0E94AA01CE0101975C
:1003F000F1F7015010F400E015C010E0ECCF82E4FA
:10040000612F0E94A6011F5F1830C9F782E4602F98
:100410000E94AA01C6010197F1F70F5F083011F49D
:1004200006E013C010E0EBCF82E4612F0E94A6012A
:100430001F5F1830C9F782E4602F0E94AA01C6012D
:100440000197F1F701500F3F11F010E0EDCF10E0F0
:1004500082E4612F0E94AA011F5F1830C9F7C7010B
:100460000197F1F710E082E4612F0E94A6011F5F5F
:100470001830C9F7C7010197F1F700E018C082E40E
:10048000612F0E94A6011F5F1830C9F782E4602F18
:100490000E94AA01692D601B82E40E94AA01CE017C
:1004A0000197F1F70F5F043011F403E018C010E07A
:1004B000E6CF82E4612F0E94A6011F5F1830C9F7C2
:1004C00082E4602F0E94AA01692D601B82E40E94D1
:1004D000AA01CE010197F1F701500F3F11F010E092
:1004E000E8CF10E082E4612F0E94AA01C5010197C4
:1004F000F1F71F5F1830B1F710E082E4612F0E941E
:10050000A6011F5F1830C9F700E051CFF894FFCF64
:00000001FF
